:020000040800F2
:10000000000008244D110008890E00088B0E00081E
:100010008D0E00088F0E0008910E000800000000F1
:10002000000000000000000000000000930E000827
:10003000950E000800000000970E0008990E0008B9
:100040009D1100089D1100089D1100089D110008D8
:100050009D1100089D1100089D1100089D110008C8
:100060009D1100089D1100089D1100089D110008B8
:100070009D1100089D1100089D1100089D110008A8
:100080009D1100089D1100089D1100089D11000898
:100090009D1100089D1100089D1100089D11000888
:1000A0009D1100089D1100089D1100089D11000878
:1000B000A10E00089D1100089D1100089D11000867
:1000C0009D1100089D1100089D1100089D11000858
:1000D0009D1100089D1100089D1100089D11000848
:1000E0009D1100089D110008000000009D110008EE
:1000F0009D1100089D1100089D1100089D11000828
:100100009D1100089D1100089D1100089D11000817
:100110009D1100089D1100089D1100089D11000807
:100120009D1100089D1100089D1100089D110008F7
:100130009D1100089D1100089D1100089D110008E7
:1001400000000000000000000000000000000000AF
:100150009D1100089D1100089D1100089D110008C7
:100160009D1100089D1100089D1100089D110008B7
:100170009D1100089D1100089D1100089D110008A7
:100180009D1100089D1100089D1100089D11000897
:100190009D1100089D1100089D1100089D11000887
:1001A0009D1100089D1100089D1100089D11000877
:1001B0009D1100089D1100089D1100089D11000867
:1001C0009D1100089D1100089D1100089D11000857
:1001D0009D1100089D1100089D1100089D11000847
:1001E0009D1100089D1100089D1100089D11000837
:1001F0009D1100089D1100089D1100089D11000827
:100200009D1100089D1100089D1100089D11000816
:100210009D1100089D1100089D1100089D11000806
:100220009D1100089D1100089D11000800000000AC
:100230009D1100089D110008000000009D1100089C
:100240009D1100089D1100089D1100089D110008D6
:100250009D1100089D1100089D1100089D110008C6
:100260009D1100089D1100089D1100089D110008B6
:100270009D1100089D1100089D110008000000005C
:100280009D1100089D1100089D110008000000004C
:08029000000000009D110008B0
:1002980010B5054C237833B9044B13B10448AFF3B8
:1002A80000800123237010BD3C04002400000000DE
:1002B800B044000808B5034B1BB103490348AFF32A
:1002C800008008BD0000000040040024B04400087D
:1002D80080F0004002E000BF81F0004142001FBFF3
:1002E8005FEA410392EA030F7FEA226C7FEA236CFC
:1002F8006AD04FEA1262D2EB1363C1BFD2184140F1
:1003080048404140B8BF5B42192B88BF704710F086
:10031800004F40F4000020F07F4018BF404211F029
:10032800004F41F4000121F07F4118BF494292EA91
:10033800030F3FD0A2F1010241FA03FC10EB0C00BD
:10034800C3F1200301FA03F100F0004302D549424A
:1003580060EB4000B0F5000F13D3B0F1807F06D3F7
:1003680040084FEA310102F10102FE2A51D2B1F1EF
:10037800004F40EBC25008BF20F0010040EA0300E4
:100388007047490040EB0000013A28BFB0F5000F64
:10039800EDD2B0FA80FCACF1080CB2EB0C0200FA1A
:1003A8000CF0AABF00EBC25052421843BCBFD04069
:1003B8001843704792F0000F81F4000106BF80F4E3
:1003C80000000132013BB5E74FEA41037FEA226CA6
:1003D80018BF7FEA236C21D092EA030F04D092F071
:1003E800000F08BF0846704790EA010F1CBF0020A5
:1003F800704712F07F4F04D1400028BF40F0004002
:10040800704712F100723CBF00F50000704700F021
:10041800004343F0FE4040F4000070477FEA226248
:1004280016BF08467FEA23630146420206BF5FEA19
:10043800412390EA010F40F4800070474FF0000319
:1004480004E000BF10F0004348BF40425FEA000CE0
:1004580008BF704743F0964301464FF000001CE088
:1004680050EA010208BF70474FF000030AE000BFDE
:1004780050EA010208BF704711F0004302D540421C
:1004880061EB41015FEA010C02BF8446014600208E
:1004980043F0B64308BFA3F18053A3F50003BCFAA9
:1004A8008CF2083AA3EBC25310DB01FA02FC634456
:1004B80000FA02FCC2F12002BCF1004F20FA02F25D
:1004C80043EB020008BF20F00100704702F1200250
:1004D80001FA02FCC2F1200250EA4C0021FA02F2B1
:1004E80043EB020008BF20EADC7070474FF0FF0CB6
:1004F8001CEAD0521EBF1CEAD15392EA0C0F93EAB1
:100508000C0F6FD01A4480EA010C400218BF5FEA52
:1005180041211ED04FF0006343EA501043EA5111C5
:10052800A0FB01310CF00040B1F5000F3EBF4900BF
:1005380041EAD3715B0040EA010062F17F02FD2AC3
:100548001DD8B3F1004F40EBC25008BF20F00100A6
:10055800704790F0000F0CF0004C08BF49024CEABD
:10056800502040EA51207F3AC2BFD2F1FF0340EA4F
:10057800C250704740F400004FF00003013A5DDCC0
:1005880012F1190FDCBF00F000407047C2F1000201
:10059800410021FA02F1C2F1200200FA02FC5FEAEE
:1005A800310040F1000053EA4C0308BF20EADC7038
:1005B800704792F0000F00F0004C02BF400010F4AA
:1005C800000F013AF9D040EA0C0093F0000F01F057
:1005D800004C02BF490011F4000F013BF9D041EA79
:1005E8000C018FE70CEAD15392EA0C0F18BF93EA7B
:1005F8000C0F0AD030F0004C18BF31F0004CD8D1A5
:1006080080EA010000F00040704790F0000F17BF2B
:1006180090F0004F084691F0000F91F0004F14D071
:1006280092EA0C0F01D142020FD193EA0C0F03D1C9
:100638004B0218BF084608D180EA010000F00040CC
:1006480040F0FE4040F40000704740F0FE4040F4A7
:10065800400070474FF0FF0C1CEAD0521EBF1CEA46
:10066800D15392EA0C0F93EA0C0F69D0A2EB030264
:1006780080EA010C49024FEA402037D04FF08053FE
:1006880043EA111143EA10130CF000408B4238BFC3
:100698005B0042F17D024FF4000C8B4224BF5B1AD1
:1006A80040EA0C00B3EB510F24BFA3EB510340EA1F
:1006B8005C00B3EB910F24BFA3EB910340EA9C00CD
:1006C800B3EBD10F24BFA3EBD10340EADC001B013D
:1006D80018BF5FEA1C1CE0D1FD2A3FF650AF8B42E1
:1006E80040EBC25008BF20F0010070470CF0004CEE
:1006F8004CEA50207F32C2BFD2F1FF0340EAC25019
:10070800704740F400004FF00003013A37E792F0D9
:10071800000F00F0004C02BF400010F4000F013A37
:10072800F9D040EA0C0093F0000F01F0004C02BF32
:10073800490011F4000F013BF9D041EA0C0195E79B
:100748000CEAD15392EA0C0F08D142027FF47DAF34
:1007580093EA0C0F7FF470AF084676E793EA0C0F24
:1007680004D14B023FF44CAF08466EE730F0004C22
:1007780018BF31F0004CCAD130F000427FF45CAFB2
:1007880031F000437FF43CAF5FE700BF42000ED278
:10079800B2F1FE4F0BD34FF09E03B3EB126209D4B4
:1007A8004FEA002343F0004323FA02F070474FF06A
:1007B8000000704712F1610F01D1420202D14FF0DF
:1007C800FF3070474FF00000704700BF53B94AB977
:1007D800002908BF00281CBF4FF0FF314FF0FF3041
:1007E80000F074B9ADF1080C6DE904CE00F006F81C
:1007F800DDF804E0DDE9022304B070472DE9F04795
:10080800089E0D4604468846002B4DD18A429446E0
:1008180068D9B2FA82F252B101FA02F3C2F12001A8
:1008280020FA01F10CFA02FC41EA030894404FEA6D
:100838001C45210CB8FBF5FE1FFA8CF705FB1E833F
:1008480041EA03430EFB07F199420BD91CEB030362
:100858000EF1FF3080F01E81994240F21B81AEF10B
:10086800020E63445B1AA4B2B3FBF5F005FB103328
:1008780044EA034400FB07F7A7420AD91CEB040427
:1008880000F1FF3380F00881A74240F205816444FB
:100898000238E41B40EA0E4000211EB1D440002378
:1008A800C6E90043BDE8F0878B4208D9002E00F066
:1008B800EE800021C6E900050846BDE8F087B3FAD6
:1008C80083F100294AD1AB4202D3824200F2F98077
:1008D800841A65EB030301209846002EE2D0C6E98E
:1008E8000048DFE702B9FFDEB2FA82F2002A40F0E0
:1008F8009180A1EB0C054FEA1C471FFA8CFE0121E1
:10090800B5FBF7F307FB1350250C45EA00450EFB32
:1009180003F0A84208D91CEB050503F1FF3802D201
:10092800A84200F2CB8043462D1AA4B2B5FBF7F0DB
:1009380007FB105544EA05440EFB00FEA64508D9FE
:100948001CEB040400F1FF3502D2A64500F2BB807F
:100958002846A4EB0E0440EA03409EE7C1F12007B5
:100968008B4022FA07FC4CEA030C20FA07F405FA3C
:1009780001F31C43FD404FEA1C4900FA01F3B5FBA3
:10098800F9F8200C1FFA8CFE09FB185540EA0545BA
:1009980008FB0EF0A84202FA01F20BD91CEB050580
:1009A80008F1FF3A80F08880A84240F28580A8F1DB
:1009B800020865442D1AA4B2B5FBF9F009FB1055DD
:1009C80044EA054500FB0EFEAE4508D91CEB0505BB
:1009D80000F1FF346CD2AE456AD90238654440EA6A
:1009E8000840A0FB0294A5EB0E05A542C846A64602
:1009F80056D353D05EB1B3EB080265EB0E0505FA8A
:100A080007F722FA01F3CD401F43C6E9007500211C
:100A1800BDE8F087C2F1200320FA03F10CFA02FCCA
:100A280025FA03F395400D434FEA1C471FFA8CFE45
:100A3800B3FBF7F107FB11302B0C43EA004301FB32
:100A48000EF0984204FA02F408D91CEB030301F1F2
:100A5800FF382FD298422DD9023963441B1AADB200
:100A6800B3FBF7F007FB103345EA034500FB0EF331
:100A7800AB4208D91CEB050500F1FF3816D2AB4292
:100A880014D902386544ED1A40EA014138E7314685
:100A9800304607E78646E5E61846FAE64B45A9D20A
:100AA800B9EB020864EB0C0E0138A3E74046EAE70D
:100AB800204694E74146D1E7D0467BE7023B6544B0
:100AC80032E7084609E76444023842E7704700BF46
:100AD8002DE9F0418AB000240594069407940894FF
:100AE80009943E4BD3F8E02042F00402C3F8E0201A
:100AF800D3F8E02002F004020092009AD3F8E02034
:100B080042F08002C3F8E020D3F8E02002F080022F
:100B18000192019AD3F8E02042F00102C3F8E020E4
:100B2800D3F8E02002F001020292029AD3F8E02002
:100B380042F00202C3F8E020D3F8E02002F00202FB
:100B48000392039AD3F8E02042F01002C3F8E020A1
:100B5800D3F8E03003F010030493049B204F22469F
:100B6800BF21384600F004FDDFF8788022464FF4B4
:100B78000071404600F0FCFC1D23059301260696F3
:100B880007960225089505A9384600F0DDFB05956E
:100B980006960795089505A9384600F0D5FBA023C9
:100BA800059306960794089405A9384600F0CCFBEF
:100BB800072305930694079405A9404600F0C4FB53
:100BC8004FF40073059306960795089505A94046C6
:100BD80000F0BAFB0AB0BDE8F08100BF004402583B
:100BE800000002580004025838B50568174C012265
:100BF8001021204600F0BCFC00221021204600F005
:100C0800B7FC00240BE000228021104800F0B0FC63
:100C1800002220210D4800F0ABFC6D000134172C98
:100C28000DDC01222021094800F0A2FC15F4000F78
:100C3800E9D001228021054800F09AFCE8E701226A
:100C48001021024800F094FC38BD00BF0000025893
:100C580030B583B0002400940194084B00934FF4FE
:100C6800402301936D4604E02846FFF7BDFF043595
:100C78000134012CF8DD03B030BD00BF1F001000A7
:100C880072B6FEE700B59DB04C22002109A803F01A
:100C980049FB2022002101A803F044FB022000F0B8
:100CA8006DFC00230093254BDA6A22F00102DA6218
:100CB800DB6A03F001030093214B9A6942F4404236
:100CC8009A619B6903F440430093009B1C4B9B690A
:100CD80013F4005FFAD0012309934FF480330A9389
:100CE8000223129313931493402215921693179389
:100CF80018930C23199300231A931B9309A800F047
:100D080067FCB0B93F2301930323029300230393A5
:100D1800082304934023059306934FF480620792B7
:100D28000893022101A801F0B9F820B91DB05DF8B7
:100D380004FBFFF7A5FFFFF7A3FF00BF000400585F
:100D48000048025810B582B000F04EFAFFF79AFF3B
:100D5800FFF7BEFE00F076F900F018F9002314E062
:100D6800364A642122F81310354AC82122F8131094
:100D7800344A4FF4004142F823100022324941F826
:100D88002320324941F8232001330B2BE8DD304B77
:100D980010221A8008225A8004229A802D4B00249F
:100DA8001C604FF480325A604FF400329A604FF45E
:100DB8004032DA6001221146274800F0D9FB01943D
:100DC800FFF746FF002412E0624204F0030302F03A
:100DD800030258BF53421F4A52F82330194A52F8A7
:100DE80024201343019301A8FFF7FEFE01340B2CC6
:100DF800E8DC164B53F82430104A32F8142093429A
:100E0800E2D00F4A32F814209342EFD1624204F044
:100E1800030302F0030258BF53420E4A52F823302C
:100E2800094A52F824201343019301A8FFF7DCFE76
:100E3800064B002243F82420D8E700BF70040024A2
:100E4800B804002488040024D004002400050024E9
:100E580058040024600400240000025882B0074BA4
:100E6800D3F8F42042F00202C3F8F420D3F8F430A7
:100E780003F002030193019B02B07047004402583B
:100E8800FEE7FEE7FEE7FEE7FEE7704770477047BC
:100E980008B500F0D7F908BD08B5024802F0A2FA73
:100EA80008BD00BF30050024074B83420AD07047B5
:100EB800064951F82320013241F8232001330B2B36
:100EC800F6DDF4E70023FAE73005002400050024E6
:100ED800244B1B6803F00F03062B06D8214A13681E
:100EE80023F00F0343F0070313601F4B1A6842F007
:100EF80001021A6000221A6119681C4A0A401A6025
:100F0800184B1B6813F0080F06D0164A136823F015
:100F18000F0343F007031360134B00229A61DA6151
:100F28001A62134999621349D962134919635A63BA
:100F38009963DA6319645A64196821F48021196085
:100F48001A660E4B1A680E4B1340B3F1005F03D2BA
:100F58000C4B0122C3F808210B4B43F2D2021A6052
:100F6800704700BF00200052004402587FEDF6EAA7
:100F7800000202020000FF01800201010010005C73
:100F88000000FFFF008000510040005200B589B00A
:100F98000023049305930693079301930293039305
:100FA80016484FF080420260C7224260836042F2D6
:100FB8000F72C2600361836102F05CFBA8B94FF451
:100FC8008053049304A90D4802F090FB80B90023D4
:100FD8000193039301A9094802F024FC58B9074872
:100FE80002F0B4F909B05DF804FBFFF749FEE6E743
:100FF800FFF746FEEBE7FFF743FEF0E73005002476
:101008000368B3F1804F00D0704700B583B00C4B34
:10101800D3F8E82042F00102C3F8E820D3F8E8301A
:1010280003F001030193019B002211461C2000F0EC
:1010380033F91C2000F066F903B05DF804FB00BF2B
:101048000044025808B51748174B03604FF4E133C2
:10105800436000238360C36003610C2242618361A3
:10106800C36103624362836203F075F870B90021BB
:101078000C4803F0E8F860B900210A4803F008F9C1
:1010880050B9084803F0C0F848B908BDFFF7F8FDA3
:10109800EDE7FFF7F5FDEFE7FFF7F2FDF1E7FFF703
:1010A800EFFDF2E77C050024007C004010B5B8B0E5
:1010B8000446002133913491359136913791C022FD
:1010C80002A803F02FF922681B4B9A4201D038B0CE
:1010D80010BD02220023CDE9022302A801F07AF90B
:1010E80030BB164BD3F8E82042F00042C3F8E820A2
:1010F800D3F8E82002F000420092009AD3F8E020EA
:1011080042F01002C3F8E020D3F8E03003F01003F7
:101118000193019B032333930223349300233593D4
:1011280036930823379333A9054800F00DF9CEE725
:10113800FFF7A6FDD5E700BF007C00400044025839
:1011480000100258DFF834D0FFF7C2FE0C480D49F2
:101158000D4A002302E0D458C4500433C4188C420A
:10116800F9D30A4A0A4C002301E013600432A24270
:10117800FBD303F0B3F8FFF7E5FD70470000082440
:10118800000000243C040024184500083C04002406
:1011980018060024FEE70000104B1B780BB901204D
:1011A800704710B504464FF47A70B0FBF3F30C4A5D
:1011B8001068B0FBF3F000F0B3F868B90F2C01D950
:1011C80001200AE0002221464FF0FF3000F064F8C9
:1011D800044B1C60002000E0012010BD0800002422
:1011E800000000240C00002410B5032000F042F891
:1011F80000F048FD0F498B69C3F303230E4AD35C03
:1012080003F01F03D8408B6903F00F03D35C03F08E
:101218001F0320FA03F3094A1360094B18600F20D3
:10122800FFF7BAFF10B10124204610BD0446FFF7AE
:1012380015FEF9E700440258C844000804000024D9
:1012480000000024034B1B78034A11680B44136009
:10125800704700BF0800002410060024014B1868DE
:10126800704700BF10060024014B1868000C704737
:101278000010005C0649CB6823F4E0631B041B0CD8
:10128800000200F4E0600343024A1A43CA60704750
:1012980000ED00E00000FA0500B5174BDB68C3F36A
:1012A8000223C3F1070CBCF1040F28BF4FF0040C54
:1012B80003F1040EBEF1060F14D9033B4FF0FF3EB5
:1012C8000EFA0CFC21EA0C0199400EFA03F322EA0B
:1012D80003031943002807DB0901C9B2074B195456
:1012E8005DF804FB0023E9E700F00F000901C9B22B
:1012F800034B1954F4E700BF00ED00E000E400E000
:1013080014ED00E0002807DB00F01F02400901236C
:101318009340024A42F82030704700BF00E100E0E5
:101328000138B0F1807F0BD24FF0E0235861054AB5
:10133800F02182F823100020986107221A61704773
:101348000120704700ED00E070B582B000236EE028
:1013580085685E000324B44025EA0405CC68B440DF
:101368002C438460446824EA0C0C4C68C4F30014D1
:101378009C4044EA0C0444606CE0DD08083550F8F1
:10138800256003F007044FEA840C0F2404FA0CF4D8
:1013980026EA040E0C6904FA0CF444EA0E0440F838
:1013A80025406FE0092400E0002404FA0EF42C43E1
:1013B8000CF1020C6B4D45F82C404FF0B0442568F9
:1013C800D44325EA0206D1F804C01CF4801F01D0DA
:1013D80042EA05064FF0B0452E606D6804EA05063E
:1013E800D1F804C01CF4001F01D042EA05064FF0F2
:1013F800B0456E60D5F8845004EA0506D1F804C0FB
:101408001CF4003F01D042EA05064FF0B045C5F88C
:101418008460D5F880502C404E6816F4803F01D087
:1014280042EA05044FF0B042C2F8804001330A682E
:1014380032FA03F400F093804FF0010C0CFA03FC2D
:101448001CEA0202F2D04C6804F00304013C012CAF
:101458007FF67EAF4C6804F00304032C0CD0C468FC
:101468005D004FF0030C0CFA05FC24EA0C0C8C68A8
:10147800AC4044EA0C04C4604C6804F00304022C39
:101488003FF47BAF04684FEA430E4FF0030C0CFAAD
:101498000EFC24EA0C0C4C6804F0030404FA0EF465
:1014A80044EA0C0404604C6814F4403FBED02E4C4F
:1014B800D4F8F45045F00205C4F8F450D4F8F440D8
:1014C80004F002040194019C4FEA930C0CF102050C
:1014D800244C54F8255003F003044FEA840E0F24DB
:1014E80004FA0EF425EA0405204CA0423FF45CAF50
:1014F80004F58064A04222D004F58064A04220D084
:1015080004F58064A0421ED004F58064A0421CD07B
:1015180004F58064A0421AD004F58064A04218D073
:1015280004F58064A04216D004F58064A04214D06B
:1015380004F58064A0423FF435AF0A2435E701245E
:1015480033E7022431E703242FE704242DE7052499
:101558002BE7062429E7072427E7082425E702B014
:1015680070BD00BF00040058004402580000025833
:101578000AB181617047090481617047134BDB68C8
:1015880013F0040F07D1114BDB6803F00703834204
:101598001AD00120704710B50C4AD36823F007030E
:1015A8001843D060FFF75AFE0446084B5B6813F4F3
:1015B800005F07D1FFF752FE001BB0F57A7FF4D920
:1015C800012000E0002010BD0020704700480258AC
:1015D800002800F0398338B50446036813F0010F7A
:1015E80025D0944A136903F03803926A102B15D05A
:1015F800182B0FD06368B3F5803F3FD0002B53D131
:101608008C4B1A6822F480321A601A6822F48022FD
:101618001A6038E002F00302022AEBD1854B1B68FE
:1016280013F4003F03D06368002B00F00F83236896
:1016380013F0020F00F0A1807E4A1369926A13F03A
:1016480038035AD0182B55D0E368002B00F0DE8001
:1016580078490A6822F0190213430B60FFF7FEFD70
:101668000546744B1B6813F0040F40F0AD80FFF77C
:10167800F5FD401B0228F4D90320EEE26D4A1368F9
:1016880043F48033136063682BB3FFF7E7FD054627
:10169800684B1B6813F4003FC9D1FFF7DFFD401BFF
:1016A8006428F5D90320D8E2B3F5A02F09D0614BFF
:1016B8001A6822F480321A601A6822F480221A60AA
:1016C800E1E75C4B1A6842F480221A601A6842F417
:1016D80080321A60D7E7FFF7C1FD0546554B1B68F6
:1016E80013F4003FA3D0FFF7B9FD401B6428F5D9D8
:1016F8000320B2E212F0030FA6D14E4B1B6813F081
:10170800040F03D0E368002B00F0A282494A136853
:1017180023F01903E1680B431360FFF79FFD0546AB
:10172800444B1B6813F0040F06D1FFF797FD401BCD
:101738000228F5D9032090E2FFF796FD41F2030352
:10174800984212D82269402A07D03A494B6823F4B4
:101758007C3343EA02334B600FE0364A536823F484
:101768007C3343F40033536007E0324A536823F074
:10177800FE43216943EA01635360236813F0100FA5
:1017880000F088802B4A136903F03803926A082B0B
:1017980056D0182B50D0E369002B00F0B880254AAA
:1017A800136843F080031360FFF758FD0546214B8B
:1017B8001B6813F4807F40F08880FFF74FFD401BC3
:1017C8000228F4D9032048E2FFF74EFD41F2030353
:1017D800984212D82269402A07D016494B6823F448
:1017E8007C3343EA02334B60C7E7124A536823F459
:1017F8007C3343F400335360BFE70E4A536823F049
:10180800FE43216943EA01635360B6E7094A136856
:1018180023F001031360FFF721FD0546054B1B6804
:1018280013F0040FA9D0FFF719FD401B0228F5D9C2
:10183800032012E20044025802F00302012AAAD14E
:10184800A14B1B6813F4807F03D0E369802B40F021
:101858000182FFF709FD41F20303984212D8226A78
:10186800202A07D098494B6823F0F84343EA82635B
:101878004B600FE0944A536823F0F84343F08043E9
:10188800536007E0904AD36823F07C53216A43EA07
:101898000163D360236813F0080F60D06369002BDD
:1018A80049D0894A536F43F001035367FFF7D6FCC9
:1018B8000546854B5B6F13F0020F50D1FFF7CEFC46
:1018C800401B0228F5D90320C7E1FFF7CDFC41F200
:1018D8000303984212D8226A202A07D07A494B6813
:1018E80023F0F84343EA82634B60D3E7764A5368B0
:1018F80023F0F84343F080435360CBE7724AD36840
:1019080023F07C53216A43EA0163D360C2E76E4A3D
:10191800136823F080031360FFF7A0FC05466A4BA9
:101928001B6813F4807FB5D0FFF798FC401B022892
:10193800F5D9032091E1644A536F23F001035367FB
:10194800FFF78CFC0546604B5B6F13F0020F06D067
:10195800FFF784FC401B0228F5D903207DE12368AA
:1019680013F0200F29D0A3699BB1574A136843F499
:1019780080531360FFF772FC0546534B1B6813F442
:10198800005F1AD1FFF76AFC401B0228F5D9032033
:1019980063E14D4A136823F480531360FFF75EFC3C
:1019A8000546494B1B6813F4005F06D0FFF756FC49
:1019B800401B0228F5D903204FE1236813F0040FD8
:1019C80021D1636A002B00F047813F4A126902F077
:1019D8003802182A00F0EE80022B79D03A4A1368B0
:1019E80023F080731360FFF739FC0446364B1B68FD
:1019F80013F0007F00F0DC80FFF730FC001B0228AA
:101A0800F4D9032029E1314A136843F48073136041
:101A1800FFF724FC05462D4B1B6813F4807F06D185
:101A2800FFF71CFC401B6428F5D9032015E1A368C7
:101A3800012B0AD00BBB244B1A6F22F001021A6744
:101A48001A6F22F004021A6704E01F4A136F43F06A
:101A580001031367A36833B3FFF700FC05461A4B6D
:101A68001B6F13F0020FACD1FFF7F8FB401B41F2DC
:101A780088339842F3D90320EFE0052B09D0124BA5
:101A88001A6F22F001021A671A6F22F004021A670D
:101A9800E0E70D4B1A6F42F004021A671A6F42F022
:101AA80001021A67D6E7FFF7D9FB0546064B1B6FFD
:101AB80013F0020F85D0FFF7D1FB401B41F28833AA
:101AC8009842F3D90320C8E000440258004802585D
:101AD800694A136823F080731360FFF7BFFB05465C
:101AE800654B1B6813F0007F06D0FFF7B7FB401B60
:101AF8000228F5D90320B0E05F4B996A5F4A0A4093
:101B0800A16AE06A41EA00110A439A62226B013A2B
:101B1800C2F30802616B0139490289B20A43A16B19
:101B28000139090401F4FE010A43E16B0139090690
:101B380001F0FE410A431A63DA6A22F00102DA620E
:101B4800596B4F4A0A40A16C42EAC1025A63DA6AE9
:101B580022F00C02216C0A43DA62DA6A22F00202ED
:101B6800616C0A43DA62DA6A42F48032DA62DA6A6B
:101B780042F40032DA62DA6A42F48022DA62DA6A1D
:101B880042F00102DA621A6842F080721A60FFF7C6
:101B980065FB0446384B1B6813F0007F06D1FFF73E
:101BA8005DFB001B0228F5D9032056E0002054E015
:101BB800002052E0304A916A106B012B4ED001F0A0
:101BC8000303A26A93424BD1C1F30511E36A994218
:101BD80048D1C0F30802236B013B9A4244D1C0F3B9
:101BE8004622636B013B9A4240D1C0F30642A36B85
:101BF800013B9A423CD1C0F30660E36B013B98423B
:101C080038D11D4B5B6BC3F3CC03A26C9A4201D154
:101C1800002022E0184AD36A23F00103D362FFF7B9
:101C28001DFB0546FFF71AFBA842FBD0124A516B71
:101C3800134B0B40A16C43EAC1035363D36A43F0CF
:101C48000103D362002008E001207047012004E06E
:101C5800012002E0012000E0002038BD0120FCE75F
:101C68000120FAE70120F8E70120F6E70120F4E770
:101C78000120F2E70120F0E7004402580CFCFFFFC6
:101C88000700FFFFF8B57E4B1B6903F03803102BE4
:101C980000F0F280182B10D013B17A4C2046F8BD12
:101CA800774B1B6813F0200F00F0E880744B18681E
:101CB800C0F3C100744CC440F0E7714B9D6A05F055
:101CC80003059C6AC4F30514D86A00F001005B6B35
:101CD800C3F3CC0303FB00F0FEF7B0FB0646002C71
:101CE800DCD0012D76D0022D00F0A4800DB3204663
:101CF800FEF7A4FB01466548FEF7ACFC0446604BC2
:101D0800186BC0F30800FEF799FB05464FF06451C5
:101D18003046FEF7EBFB01462846FEF7DFFA4FF0A8
:101D28007E51FEF7DBFA01462046FEF7DFFB04464C
:101D380071E0534B1B6813F0200F29D0504F3B68BC
:101D4800C3F3C1035048D840FEF778FB0546204648
:101D5800FEF774FB01462846FEF77CFC0446386B08
:101D6800C0F30800FEF76AFB05464FF064513046A1
:101D7800FEF7BCFB01462846FEF7B0FA4FF07E514D
:101D8800FEF7ACFA01462046FEF7B0FB044642E0F7
:101D98002046FEF753FB01463D48FEF75BFC044630
:101DA800374B186BC0F30800FEF748FB05464FF0A9
:101DB80064513046FEF79AFB01462846FEF78EFA34
:101DC8004FF07E51FEF78AFA01462046FEF78EFB59
:101DD800044620E02046FEF731FB01462B48FEF77B
:101DE80039FC0446264B186BC0F30800FEF726FBA7
:101DF80005464FF064513046FEF778FB0146284609
:101E0800FEF76CFA4FF07E51FEF768FA014620465D
:101E1800FEF76CFB04461A4B1B6BC3F34623581C96
:101E2800FEF70CFB01462046FEF714FCFEF7AEFC5D
:101E3800044633E72046FEF701FB01461548FEF746
:101E480009FC04460E4B186BC0F30800FEF7F6FABF
:101E580005464FF064513046FEF748FB01462846D8
:101E6800FEF73CFA4FF07E51FEF738FA014620465D
:101E7800FEF73CFB0446CEE7074C0FE7024C0DE7A4
:101E88000044025800093D000090D0030024744A21
:101E98000024744C20BCBE4B40787D01002800F023
:101EA800328170B50D4604469B4B1B6803F00F0347
:101EB8008B420BD2984A136823F00F030B4313602D
:101EC800136803F00F038B4240F01F81236813F05F
:101ED800040F0CD02269914B9B6903F070039A425E
:101EE80005D98E498B6923F070031A438A612368E8
:101EF80013F0080F0CD06269884BDB6903F070039C
:101F08009A4205D98549CB6923F070031A43CA61FF
:101F1800236813F0100F0CD0A269804BDB6903F41F
:101F2800E0639A4205D97D49CB6923F4E0631A43FB
:101F3800CA61236813F0200F0CD0E269774B1B6A43
:101F480003F070039A4205D974490B6A23F07003B1
:101F58001A430A62236813F0020F0CD0E2686F4B31
:101F68009B6903F00F039A4205D96C498B6923F0EA
:101F78000F031A438A61236813F0010F41D0674A9F
:101F8800936923F47063A1680B4393616368022B20
:101F98000AD0032B27D0012B2CD0604A126812F0EC
:101FA800040F06D10120ADE0126812F4003F00F0E2
:101FB800AE805A490A6922F0070213430B61FFF702
:101FC8004DF90646554B1B6903F038036268B3EBBD
:101FD800C20F16D0FFF742F9801B41F288339842AE
:101FE800F0D903208EE04D4A126812F0007FE0D14C
:101FF800012087E0494A126812F4807FD9D1012074
:1020080080E0236813F0020F0CD0E268434B9B6911
:1020180003F00F039A4205D240498B6923F00F035E
:102028001A438A613C4B1B6803F00F03AB420AD981
:10203800394A136823F00F032B431360136803F026
:102048000F03AB4265D1236813F0040F0CD022694B
:10205800324B9B6903F070039A4205D22F498B6972
:1020680023F070031A438A61236813F0080F0CD019
:1020780062692A4BDB6903F070039A4205D227494B
:10208800CB6923F070031A43CA61236813F0100F59
:102098000CD0A269214BDB6903F4E0639A4205D2B4
:1020A8001E49CB6923F4E0631A43CA61236813F01D
:1020B800200F0CD0E269194B1B6A03F070039A4297
:1020C80005D216490B6A23F070031A430A62FFF718
:1020D800D9FD12498B69C3F30323114AD35C03F07A
:1020E8001F03D8408B6903F00F03D35C03F01F0371
:1020F80020FA03F30B4A13600B4B18600B4B18685C
:10210800FFF74AF870BD012070470120FAE7012067
:10211800F8E70120F6E700BF00200052004402580B
:10212800C844000804000024000000240C00002417
:1021380008B5FFF7A7FD0B4A9369C3F303230A49C0
:10214800CB5C03F01F0320FA03F3926902F00F023D
:10215800885C00F01F0023FA00F0044A1060044A6B
:10216800136008BD00440258C84400080400002455
:102178000000002408B5FFF7DBFF054BDB69C3F35C
:102188000213044AD35C03F01F03D84008BD00BF04
:1021980000440258C844000808B5FFF7C9FF054BBA
:1021A800DB69C3F30223044AD35C03F01F03D8405E
:1021B80008BD00BF00440258C8440008404B9B6A51
:1021C80003F00303032B79D070B505460E463C4A4D
:1021D800136823F080631360FFF740F80446384B18
:1021E8001B6813F0006F06D0FFF738F8031B022BAB
:1021F800F5D9032070BD324B9A6A22F47C322968E3
:1022080042EA01329A626A68013AC2F30802A9688E
:102218000139490289B20A43E9680139090401F41C
:10222800FE010A4329690139090601F0FE410A4302
:102238009A63DA6A22F0C00269690A43DA62DA6AE2
:1022480022F02002A9690A43DA62DA6A22F010024F
:10225800DA62D96B1B4A0A40E96942EAC102DA63C9
:10226800DA6A42F01002DA62C6B91A46DB6A43F447
:102278000023D362124A136843F080631360FEF7A9
:10228800EDFF04460E4B1B6813F0006F14D1FEF7E8
:10229800E5FF001B0228F5D90320ABE7012E05D086
:1022A800074AD36A43F40013D362E3E7044AD36AC4
:1022B80043F48013D362DDE700209BE701207047D9
:1022C800004402580700FFFF404B9B6A03F00303DA
:1022D800032B79D070B505460E463C4A136823F0A7
:1022E80080531360FEF7BAFF0446384B1B6813F09F
:1022F800005F06D0FEF7B2FF031B022BF5D90320BF
:1023080070BD324B9A6A22F07C72296842EA015207
:102318009A626A68013AC2F30802A9680139490257
:1023280089B20A43E9680139090401F4FE010A4344
:1023380029690139090601F0FE410A431A64DA6A7B
:1023480022F4406269690A43DA62DA6A22F40072A6
:10235800A9690A43DA62DA6A22F48072DA62596C8D
:102368001B4A0A40E96942EAC1025A64DA6A42F43D
:102378008072DA62C6B91A46DB6A43F48003D36214
:10238800124A136843F080531360FEF767FF044650
:102398000E4B1B6813F0005F14D1FEF75FFF001BA4
:1023A8000228F5D90320ABE7012E05D0074AD36AE6
:1023B80043F08073D362E3E7044AD36A43F400032B
:1023C800D362DDE700209BE70120704700440258F4
:1023D8000700FFFFF8B50446036813F0006F30D01C
:1023E800836EB3F5001F26D00ED8EBB1B3F5801F6E
:1023F80007D102210830FFF7E1FE054645B12E4618
:1024080021E0012635461EE0B3F5401F09D100251D
:10241800984A136D23F44013A16E0B4313650026ED
:1024280011E0012635460EE0924AD36A43F40033A0
:10243800D3620025ECE702212830FFF745FF054667
:10244800DCE700263546236813F4807F14D0A36D9B
:10245800042B32D8DFE803F003232A080800854A52
:10246800D36A43F40033D36255BB824A136D23F019
:102478000703A16D0B431365236813F4007F31D064
:10248800E36D802B4CD020D8002B43D0402B19D1A2
:10249800002104F10800FFF791FE05461AE000212B
:1024A80004F10800FFF78AFE0546DDE7002104F184
:1024B8002800FFF709FF0546D6E701263546DBE782
:1024C8002E46D9E7012635460CE0C02B02D0B3F5DD
:1024D800807F1CD15DBB674A136D23F4E073E16D07
:1024E8000B431365236813F4806F46D0D4F8A830E3
:1024F800B3F5800F39D01FD88BB3B3F5001F18D1AF
:10250800002104F10800FFF759FE05461AE00126EC
:102518003546E7E7574AD36A43F40033D362D9E72D
:10252800002104F12800FFF7CFFE0546D2E72E462A
:10253800D8E70126354620E0B3F5C00F02D0B3F541
:10254800000F09D1C5B94B4A936D23F46003D4F841
:10255800A8100B43936510E0012635460DE0454A67
:10256800D36A43F40033D362ECE7002104F1280076
:10257800FFF7AAFE0546E5E72E46236813F4006F29
:1025880024D0D4F8AC30B3F1007F42D00ED8002B61
:1025980039D0B3F1807F06D1002104F10800FFF79C
:1025A8000DFE054608E0012635460FE0B3F1407FF1
:1025B80002D0B3F1806F23D1002D31D12D4A936D14
:1025C80023F0E063D4F8AC100B439365236813F051
:1025D800007F2ED0E36C202B40D026D833B1102BAF
:1025E80020D1244AD36A43F40033D362002D3CD16E
:1025F800204AD36C23F03003E16C0B43D36418E01A
:1026080001263546E2E71B4AD36A43F40033D36216
:10261800D2E7002104F12800FFF756FE0546CBE774
:102628002E46D3E70126354603E0302BDED00126BF
:102638003546236813F4805F2DD0236EB3F5005F11
:102648004FD019D8002B46D0B3F5805F0FD10021A9
:1026580004F10800FFF7B2FD054613E0022104F17A
:102668000800FFF7ABFD0546C0E72E46E1E7012667
:10267800354610E000440258B3F5405F02D0B3F588
:10268800804F25D1002D33D1774A136D23F4E043D1
:10269800216E0B431365236813F4005F38D0636E13
:1026A800B3F5003F53D028D843B1B3F5803F21D1CB
:1026B800012104F10800FFF781FD0546002D4DD1E9
:1026C800694A136D23F4E023616E0B4313651FE021
:1026D80001263546DFE7644AD36A43F40033D36200
:1026E800D0E7002104F12800FFF7EEFD0546C9E711
:1026F8002E46D0E7012635460AE0B3F5802FDDD017
:10270800B3F5A02FDAD0B3F5403FD7D00126354630
:10271800236813F4804F31D0D4F8B030B3F1005FA0
:1027280045D020D843B1B3F1805F19D1012104F11C
:102738000800FFF743FD0546002D3FD14A4A936D37
:1027480023F0E043D4F8B0100B43936516E0012161
:1027580004F12800FFF7B8FD0546AFE72E46D7E796
:10276800012635460AE0B3F1804FE5D0B3F1A04F1A
:10277800E2D0B3F1405FDFD001263546236813F479
:10278800004F09D0236FB3F1805F19D0B3F1005F18
:1027980024D0D3B101263546236813F0807F33D087
:1027A800A36C032B5BD8DFE803F027225327012112
:1027B80004F12800FFF788FD0546BDE72E46DDE752
:1027C800294AD36A43F40033D36275B9264A136D94
:1027D80023F04053216F0B431365DDE7012104F11A
:1027E8000800FFF7EBFC0546EFE72E46D4E71E4A44
:1027F800D36A43F40033D362A5BB1B4AD36C23F0DE
:102808000303A16C0B43D364236813F4800F2DD109
:10281800236813F0010F00F0A580E36F282B00F266
:102828009F80DFE803F08D9D9D9D9D9D9D9D879DCB
:102838009D9D9D9D9D9D969D9D9D9D9D9D9D8D9DD7
:102848009D9D9D9D9D9D8D9D9D9D9D9D9D9D8D006D
:10285800022104F10800FFF7B1FC0546CCE7012688
:102868003546D1E72E46CFE700440258914A13680F
:1028780043F480731360FEF7F1FC07468D4B1B6829
:1028880013F4807F05D1FEF7E9FCC01B6428F5D955
:102898000325002D4AD1884B1B6FD4F8B420534030
:1028A80013F4407F0CD0844B1A6F22F44072196FD6
:1028B80041F480311967196F21F4803119671A675B
:1028C800D4F8B430B3F5807F15D08DBBD4F8B430CC
:1028D80003F44072B2F5407F1ED0774A136923F49F
:1028E8007C53136174490B6FD4F8B420C2F30B0204
:1028F80013430B678CE7FEF7B1FC07466E4B1B6F63
:1029080013F0020FE1D1FEF7A9FCC01B41F2883396
:102918009842F3D90325D8E76748026922F47C5224
:10292800664901EA131313430361DBE72E466FE799
:102938002E466DE7012104F10800FFF73FFC05462C
:10294800E5B95D4A536D23F03803E16F0B435365D6
:1029580008E0012104F12800FFF7B6FC0546EFE77F
:1029680001263546236813F0020F17D0A36F052BF5
:1029780028D8DFE803F00B05200B0B0B2E46F1E7F8
:10298800012104F10800FFF719FC0546EDB94A4A90
:10299800536D23F00703A16F0B435365236813F0AE
:1029A800040F23D0D4F89430052B45D8DFE803F082
:1029B800150F3D151515012104F12800FFF784FCBA
:1029C8000546E3E701263546E8E72E46E6E7012116
:1029D80004F10800FFF7F2FB054685BB364A936D04
:1029E80023F00703D4F894100B439365236813F07E
:1029F800200F34D0D4F89030B3F1005F4ED023D8F4
:102A080043B1B3F1805F1CD1002104F10800FFF746
:102A1800D5FB0546002D48D1274A536D23F0E043E6
:102A2800D4F890100B43536519E0012104F12800F4
:102A3800FFF74AFC0546D0E701263546D6E72E467D
:102A4800D4E7012635460AE0B3F1804FE2D0B3F16E
:102A5800A04FDFD0B3F1405FDCD0012635462368B4
:102A680013F0400F37D0D4F89C30B3F5006F53D033
:102A780026D843B1B3F5806F19D1002104F10800BD
:102A8800FFF79CFB0546002D4DD10B4A936D23F4AF
:102A9800E053D4F89C100B4393651CE0022104F129
:102AA8002800FFF711FC0546B4E72E46D7E70126B4
:102AB800354610E00048025800440258CFFFFF0096
:102AC800B3F5805FDFD0B3F5A05FDCD0B3F5406F1E
:102AD800D9D001263546236813F0800F33D0D4F8B7
:102AE800A030B3F5804F00F0A38021D843B1B3F5EF
:102AF800005F1AD1002104F10800FFF75FFB0546CB
:102B0800002D40F09C80814A936D23F46043D4F8F3
:102B1800A0100B43936516E0022104F12800FFF78B
:102B2800D3FB0546AFE72E46D5E7012635460AE032
:102B3800B3F5004FE4D0B3F5204FE1D0B3F5C04F63
:102B4800DED001263546236813F0080F0CD0D4F8E0
:102B58008430B3F5805F74D06C4A536D23F44053CE
:102B6800D4F884100B435365236813F0100F0CD06E
:102B7800D4F89830B3F5807F6CD0644A936D23F411
:102B88004073D4F898100B439365236813F4002F0F
:102B98000BD0D4F8A430B3F5803F74D0B3F5003F20
:102BA80067D0002B5FD001263546236813F4802FA9
:102BB8000CD0D4F88830B3F5001F7CD0B3F5401F93
:102BC8006FD0B3F5801F67D001263546236813F40C
:102BD800803F08D0236D002B76D0B3F5803F00F0FE
:102BE800818001263546236813F0005F40F083801A
:102BF800236813F4003F00F08E80D4F88030B3F5DA
:102C0800807F00F0EC8040F28380B3F5007F03D032
:102C1800B3F5407F40F0E180002D40F0E6803B4A6C
:102C2800536D23F44073D4F880100B43536572E05E
:102C3800022104F12800FFF747FB054660E72E460E
:102C480081E7022104F12800FFF73EFB002883D02A
:102C5800012681E7022104F12800FFF735FB00284F
:102C68008BD0012689E7002104F10800FFF7A6FAB6
:102C780005467DB9254A936D23F44033D4F8A41052
:102C88000B43936591E7022104F12800FFF71CFB31
:102C98000546EEE72E4688E71C4AD36A43F400331C
:102CA800D3627DB9194A536D23F44013D4F88810C0
:102CB8000B4353658AE7012104F12800FFF704FB61
:102CC8000546EEE72E4681E7104AD36A43F40033FF
:102CD800D36275B90D4AD36C23F48033216D0B434D
:102CE800D36480E7022104F10800FFF767FA05467C
:102CF800EFE72E4677E7022104F12800FFF7E4FA10
:102D080000283FF475AF012672E700BF004402585F
:102D1800002B81D00126236813F4801F06D04F4A68
:102D2800136D23F00043616F0B431365236813F0A1
:102D3800805F07D0494A136923F48043D4F8B81058
:102D48000B431361236813F4001F06D0434A136D25
:102D580023F08073E16E0B431365236813F0804FF3
:102D680009D03E4B1A6922F400421A611A69D4F854
:102D7800BC100A431A612368002B06DA374AD36C61
:102D880023F04053616D0B43D364236813F4000FA1
:102D980007D0324A536D23F44003D4F88C100B4308
:102DA8005365636813F0010F21D1636813F0020FB4
:102DB80026D1636813F0040F2BD1636813F0080F52
:102DC80030D1636813F0100F35D1636813F0200F0A
:102DD8003AD106B101263046F8BD01269BE71F4AC5
:102DE800D36A43F40033D36216E72E4693E70021F3
:102DF80004F10800FFF7E2F90028D6D00646D4E728
:102E0800012104F10800FFF7D9F90028D1D00646BE
:102E1800CFE7022104F10800FFF7D0F90028CCD051
:102E28000646CAE7002104F12800FFF74DFA0028FA
:102E3800C7D00646C5E7012104F12800FFF744FA88
:102E48000028C2D00646C0E7022104F12800FFF797
:102E58003BFA0028BDD00646BBE700BF0044025835
:102E680008B5FFF765F9054B1B6AC3F30213044A5B
:102E7800D35C03F01F03D84008BD00BF00440258CC
:102E8800C84400082DE9F0410446864B9D6A9E6AB5
:102E9800C6F30536D86AC0F30010DB6BC3F3CC0366
:102EA80003FB00F0FDF7CAFA002E00F0F58005F0EC
:102EB80003050746012D79D0022D00F0CB800DB314
:102EC8003046FDF7BBFA01467748FDF7C3FB0546D8
:102ED800744B986BC0F30800FDF7B0FA06464FF044
:102EE80064513846FDF702FB01463046FDF7F6F916
:102EF8004FF07E51FDF7F2F901462846FDF7F6FA44
:102F0800054674E0674B1B6813F0200F2CD0DFF8E0
:102F18009481D8F80030C3F3C1036448D840FDF762
:102F28008DFA05463046FDF789FA01462846FDF731
:102F380091FB0546D8F83800C0F30800FDF77EFA83
:102F480006464FF064513846FDF7D0FA0146304640
:102F5800FDF7C4F94FF07E51FDF7C0F90146284648
:102F6800FDF7C4FA054642E03046FDF767FA014628
:102F78004F48FDF76FFB05464A4B986BC0F30800B6
:102F8800FDF75CFA06464FF064513846FDF7AEFA95
:102F980001463046FDF7A2F94FF07E51FDF79EF944
:102FA80001462846FDF7A2FA054620E03046FDF71F
:102FB80045FA01463C48FDF74DFB0546394B986BF1
:102FC800C0F30800FDF73AFA06464FF06451384658
:102FD800FDF78CFA01463046FDF780F94FF07E5137
:102FE800FDF77CF901462846FDF780FA05462D4E87
:102FF800B06BC0F34620FDF721FA4FF07E51FDF784
:103008006DF901462846FDF725FBFDF7BFFB20605B
:10301800B06BC0F30640FDF711FA4FF07E51FDF793
:103028005DF901462846FDF715FBFDF7AFFB60602B
:10303800B06BC0F30660FDF701FA4FF07E51FDF763
:103048004DF901462846FDF705FBFDF79FFBA060FB
:10305800BDE8F0813046FDF7F1F901461548FDF766
:10306800F9FA05460F4B986BC0F30800FDF7E6F92F
:1030780006464FF064513846FDF738FA01463046A7
:10308800FDF72CF94FF07E51FDF728F90146284647
:10309800FDF72CFA0546AAE7002323606360A360C6
:1030A800D6E700BF004402580024744A0090D003B9
:1030B8000024744C20BCBE4B2DE9F0410446864BDD
:1030C8009D6A9E6AC6F30556D86AC0F300205B6CF9
:1030D800C3F3CC0303FB00F0FDF7B0F9002E00F0BA
:1030E800F58005F003050746012D79D0022D00F083
:1030F800CB800DB33046FDF7A1F901467748FDF7BF
:10310800A9FA0546744B186CC0F30800FDF796F948
:1031180006464FF064513846FDF7E8F90146304657
:10312800FDF7DCF84FF07E51FDF7D8F80146284648
:10313800FDF7DCF9054674E0674B1B6813F0200FB8
:103148002CD0DFF89481D8F80030C3F3C103644869
:10315800D840FDF773F905463046FDF76FF901468B
:103168002846FDF777FA0546D8F84000C0F308006E
:10317800FDF764F906464FF064513846FDF7B6F995
:1031880001463046FDF7AAF84FF07E51FDF7A6F844
:1031980001462846FDF7AAF9054642E03046FDF704
:1031A8004DF901464F48FDF755FA05464A4B186C4C
:1031B800C0F30800FDF742F906464FF0645138465F
:1031C800FDF794F901463046FDF788F84FF07E5137
:1031D800FDF784F801462846FDF788F9054620E002
:1031E8003046FDF72BF901463C48FDF733FA054612
:1031F800394B186CC0F30800FDF720F906464FF06C
:1032080064513846FDF772F901463046FDF766F815
:103218004FF07E51FDF762F801462846FDF766F942
:1032280005462D4E306CC0F34620FDF707F94FF0E8
:103238007E51FDF753F801462846FDF70BFAFDF7D6
:10324800A5FA2060306CC0F30640FDF7F7F84FF0A0
:103258007E51FDF743F801462846FDF7FBF9FDF7D7
:1032680095FA6060306CC0F30660FDF7E7F84FF040
:103278007E51FDF733F801462846FDF7EBF9FDF7D7
:1032880085FAA060BDE8F0813046FDF7D7F8014621
:103298001548FDF7DFF905460F4B186CC0F3080019
:1032A800FDF7CCF806464FF064513846FDF71EF995
:1032B80001463046FDF712F84FF07E51FDF70EF843
:1032C80001462846FDF712F90546AAE700232360C0
:1032D8006360A360D6E700BF004402580024744A24
:1032E8000090D0030024744C20BCBE4B10B4036A79
:1032F800046A24F001040462846924F0F00C4CEAA6
:10330800021223F00A030B438261036210BC704768
:1033180010B4036A046A24F010040462846924F473
:10332800704C4CEA023223F0A00343EA0113826195
:10333800036210BC704700008268034B13400B43C4
:1033480043F00703836070478FFFCFFF90F83D304D
:10335800DBB2012B3AD1022380F83D300268D368F2
:1033680043F00103D36003681A4AB3F1804F18BFD2
:1033780093421DD0A2F57C42934219D002F5806297
:10338800934215D002F58062934211D002F578423B
:1033980093420DD0A2F56C42934209D002F59432C3
:1033A800934205D01A6842F001021A600020704763
:1033B8009968094A0A40062A18BFB2F5803F07D023
:1033C8001A6842F001021A60002070470120704715
:1033D8000020704700000140070001007047704757
:1033E8007047704770B504460368DE681D6915F0BC
:1033F800020F10D016F0020F0DD06FF002021A6102
:103408000123037703689B6913F0030F64D0FFF768
:10341800E6FF0023237715F0040F12D016F0040FEF
:103428000FD023686FF004021A6102232377236800
:103438009B6913F4407F55D02046FFF7D0FF002347
:10344800237715F0080F12D016F0080F0FD0236855
:103458006FF008021A61042323772368DB6913F0ED
:10346800030F46D02046FFF7BAFF0023237715F055
:10347800100F12D016F0100F0FD023686FF0100243
:103488001A61082323772368DB6913F4407F37D058
:103498002046FFF7A4FF0023237715F0010F02D081
:1034A80016F0010F33D115F4025F02D016F0800F29
:1034B80035D115F4807F02D016F0800F37D115F082
:1034C800400F02D016F0400F39D115F0200F02D06E
:1034D80016F0200F3BD170BDFFF780FF2046FFF7A5
:1034E8007FFF96E72046FFF779FF2046FFF778FF32
:1034F800A5E72046FFF772FF2046FFF771FFB4E704
:103508002046FFF76BFF2046FFF76AFFC3E72368F3
:103518006FF001021A612046FDF7C6FCC3E7236875
:103528006FF402521A61204600F0CDF9C1E7236812
:103538006FF480721A61204600F0C6F9BFE723686D
:103548006FF040021A612046FFF74BFFBDE7236882
:103558006FF020021A61204600F0B4F9BBE70000C2
:1035680030B503683D4A904214BF4FF0000E4FF04B
:10357800010EB0F1804F14BF72464EF00102AAB995
:10358800374CA04214BF00240124364DA8420DD068
:1035980064B904F1804404F58234A04214BF0024C5
:1035A800012405F50065A84200D01CB123F0700382
:1035B8004C68234312BB2A4A904214BF00220122BE
:1035C800284CA0421AD0CAB902F1804202F58232D0
:1035D800904214BF0022012204F50064A0420DD0DD
:1035E80062B9214A904214BF0022012204F59A349C
:1035F800A04203D012B91D4A904204D123F4407C62
:10360800CB6843EA0C0323F080034A691343036041
:103618008A68C2620A688262154A904214BF734679
:103628004EF0010363B9104B984214BF00230123E5
:1036380002F57052904203D013B90C4B984201D155
:103648000B69036301234361036913F0010F03D07E
:10365800036923F00103036130BD00BF000001408E
:1036680000080040000400400044014000480140B8
:103678000004014060B310B5044690F83D3013B320
:10368800022384F83D30214651F8040BFFF768FF08
:10369800012384F8483084F83E3084F83F3084F8B9
:1036A800403084F8413084F8423084F8433084F85C
:1036B800443084F8453084F8463084F8473084F83C
:1036C8003D30002010BD80F83C30FDF799FCD7E76D
:1036D8000120704710B4846824F47F4C42EA032226
:1036E8000A4342EA0C02826010BC704790F83C30F2
:1036F800012B00F08F8010B50446012380F83C3080
:10370800022380F83D3002689068434B0340936081
:103718000B68702B55D031D8502B6CD00CD9602B3E
:103728002AD1CA6849682068FFF7F2FD602120683D
:10373800FFF702FE002035E0402B0AD1CA6849682D
:103748002068FFF7D3FD40212068FFF7F5FD002032
:1037580028E05BD8202B07D003D9302B04D00120D8
:1037680020E00BB1102B05D119462068FFF7E4FDC6
:10377800002017E0012015E0012013E0B3F5005FF9
:103788002CD00BD9254A9342EED012D9244A934221
:10379800EAD010329342E7D0012003E0B3F5805F0E
:1037A80036D10020012384F83D30002384F83C30D2
:1037B80010BDB3F5801FD7D0B3F1101FD4D00120AE
:1037C800F0E7CB684A6889682068FFF783FF2268BA
:1037D800936843F0770393600020E3E7CB684A6877
:1037E80089682068FFF776FF2268936843F480436E
:1037F80093600020D6E7CA6849682068FFF776FD1D
:1038080050212068FFF798FD0020CBE70120C9E789
:103818000120C7E7022070478800CEFF2000100073
:103828003000100090F83C30012B45D070B40123D3
:1038380080F83C30022380F83D3003685A689C6861
:103848001E4E1F4DAB4218BFB34203D122F4700283
:103858004D682A4322F070020D682A435A600368B3
:10386800164AB3F1804F18BF934217D0A2F57C4295
:10387800934213D002F5806293420FD002F5806222
:1038880093420BD002F57842934207D0A2F56C42DE
:10389800934203D002F59432934204D124F0800479
:1038A8008A6814439C60012380F83D30002380F827
:1038B8003C30184670BC7047022070470000014039
:1038C800000401407047704770470000026852E8E2
:1038D800003F23F4907342E800310029F6D10268D2
:1038E80002F1080353E8001F0D4B0B40083242E871
:1038F80000310029F3D1C36E012B06D02023C0F874
:103908008C300023C36643677047026852E8003F63
:1039180023F0100342E800310029F6D1EEE700BF9A
:10392800FEFFFFEF70B586B0044601688368026940
:10393800134342691343C26913430868884A024023
:1039480013430B602268536823F44053E1680B4328
:103958005360A1692268834B9A4201D0236A1943B4
:103968009068814B03400B4393602268D36A23F02D
:103978000F03616A0B43D36222687C4B9A4221D0C1
:103988007B4B9A4200F08C807A4B9A4200F0A280DE
:10399800794B9A4200F0B580784B9A4200F0C88083
:1039A800774B9A4200F0F480764B9A4200F01981E6
:1039B800754B9A4200F02C816A4B9A4200F03F8185
:1039C800802333E0714B5B6D03F03803282B65D8F7
:1039D800DFE813F0290064006400640064006400F8
:1039E800640064004D0164006400640064006400C5
:1039F800640064002B0064006400640064006400D8
:103A0800640064005E006400640064006400640094
:103A18006400640060006400640064006400640082
:103A2800640064006200012300E008234D498A42D3
:103A380000F02F81E069B0F5004F00F0AF81202B36
:103A480000F20782202B00F25182DFE813F01E02F9
:103A580024024F024F0227024F024F024F022C024C
:103A68004F024F024F024F024F024F024F023102E4
:103A78004F024F024F024F024F024F024F024F02B6
:103A88004F024F024F024F024F024F024F023D02B8
:103A98001023CBE72023C9E74023C7E78023C5E7E6
:103AA8003A4B5B6D03F00703052B11D8DFE813F0E1
:103AB8000600E10008000A000C000E000023B5E72C
:103AC8000823B3E71023B1E72023AFE74023ADE78E
:103AD8008023ABE72D4B5B6D03F00703052B0ED856
:103AE800DFE803F003C90507090B00239EE7082355
:103AF8009CE710239AE7202398E7402396E7802342
:103B080094E7224B5B6D03F00703052B0ED8DFE823
:103B180003F003B40507090B002387E7082385E7AB
:103B2800102383E7202381E740237FE780237DE775
:103B3800164B5B6D03F00703052B0ED8DFE803F087
:103B4800039F0507090B002370E708236EE710237E
:103B58006CE720236AE7402368E7802366E700BF15
:103B6800F369FFCF000C0058FFF4FF11001001406B
:103B78000044004000480040004C00400050004015
:103B88000014014000780040007C004000440258C6
:103B98007D4B5B6D03F03803282B20D8DFE803F05A
:103BA800151F1F1F1F1F1F1F711F1F1F1F1F1F1FD5
:103BB800171F1F1F1F1F1F1F191F1F1F1F1F1F1F1B
:103BC8001B1F1F1F1F1F1F1F1D0001232EE7082378
:103BD8002CE710232AE7202328E7402326E7802321
:103BE80024E7694B5B6D03F00703052B0ED8DFE86C
:103BF80003F0034A0507090B002317E7082315E715
:103C0800102313E7202311E740230FE780230DE754
:103C18005D4B5B6D03F00703052B0ED8DFE803F05F
:103C280003350507090B002300E70823FEE61023E8
:103C3800FCE62023FAE64023F8E68023F6E603F5BF
:103C48000E339B6D03F00703052B0ED8DFE803F056
:103C5800031F0507090B0223E8E60823E6E61023FD
:103C6800E4E62023E2E64023E0E68023DEE60423C0
:103C7800DCE60423DAE60423D8E60423D6E60423A4
:103C8800D4E60423D2E60423D0E60423CEE60423B4
:103C9800CCE6202B27D8022BC0F01A81023B1E2B22
:103CA80000F21881DFE813F05000160156001601E3
:103CB800160116015B001601160116011601160100
:103CC80016011601600016011601160116011601EB
:103CD8001601160116011601160116011601160124
:103CE800160116016C00402B2CD14FF40040626A7B
:103CF800264B33F81220B0FBF2F3656805EB45015B
:103D0800994200F2E980B3EB053F00F2E780002614
:103D180033463146FCF75AFD090241EA10610002B8
:103D28006B08C0182A46334641F10001FCF74EFDE6
:103D3800A0F54072164B9A4200F2D2802368D860F0
:103D48003046D4E00120D2E0FFF78AF80028CED12F
:103D58000020CCE003A8FFF795F80498F6E768463A
:103D6800FFF7AAF90198F1E7074B1B6813F0200F3A
:103D780008D0054B1B68C3F3C1030648D840E5E7E4
:103D88000548B4E70348B2E700440258D84400089D
:103D9800FFFC0F000090D00300093D00202B15D830
:103DA800202B00F29F80DFE803F031379D9D3A9D7C
:103DB8009D9D3F9D9D9D9D9D9D9D449D9D9D9D9DE2
:103DC8009D9D9D9D9D9D9D9D9D9D5000402B1BD122
:103DD800626A4D4B33F81230B0FBF3F06268530857
:103DE80003EB4000B0FBF2F0A0F110024FF6EF73C6
:103DF8009A4279D883B223F00F03C0F342001843E4
:103E08002368D860002072E0012070E0FEF7B2F964
:103E18000028DDD100206AE0FEF7BEF9F8E703A824
:103E2800FFF730F80498F3E76846FFF745F901987B
:103E3800EEE7364B1B6813F0200F08D0334B1B6896
:103E4800C3F3C1033248D840E2E73248C0E73048FC
:103E5800BEE7402B17D14FF40040626A2A4B33F873
:103E68001230B0FBF3F0636800EB5300B0FBF3F0E3
:103E7800A0F110024FF6EF739A4242D8236880B23D
:103E8800D860002033E0012031E0FEF773F9002804
:103E9800E3D100202BE0FEF77FF9F8E703A8FEF74F
:103EA800F1FF0498F3E76846FFF706F90198EEE793
:103EB800164B1B6813F0200F08D0144B1B68C3F374
:103EC800C1031348D840E2E71248C6E71048C4E7E0
:103ED80001200CE001200AE0012008E0012006E0B2
:103EE800012004E0012002E0012000E0012001237C
:103EF800A4F86A30A4F8683000236367A36706B0A3
:103F080070BD0120F3E700BFD84400080044025800
:103F18000090D00300093D00836A13F0080F06D013
:103F28000268536823F40043816B0B435360836A30
:103F380013F0010F06D00268536823F40033C16AF6
:103F48000B435360836A13F0020F06D0026853686C
:103F580023F48033016B0B435360836A13F0040F1F
:103F680006D00268536823F48023416B0B435360E7
:103F7800836A13F0100F06D00268936823F4805305
:103F8800C16B0B439360836A13F0200F06D002685D
:103F9800936823F40053016C0B439360836A13F016
:103FA800400F0AD00268536823F48013416C0B4316
:103FB8005360436CB3F5801F0BD0836A13F0800FF6
:103FC80006D00268536823F40023C16C0B43536086
:103FD80070470268536823F4C003816C0B43536035
:103FE800EBE72DE9F84305460E4617469946DDF8F6
:103FF80020802C68E46936EA04030CBF4FF0010CFA
:104008004FF0000CBC453AD1B8F1FF3FF1D0FDF7B5
:1040180025F9A0EB0900404534D8B8F1000F33D09A
:104028002B681A6812F0040FE3D0B6F1400218BFEB
:104038000122802EDDD0002ADBD0DA6912F0080FC9
:1040480011D1DA6912F4006FD3D04FF400621A620A
:104058002846FFF73BFC2023C5F89030002385F85D
:10406800843003200CE008241C622846FFF72EFC4D
:10407800C5F89040002385F88430012000E0002036
:10408800BDE8F8830320FBE70320F9E730B583B0E8
:1040980004460023C0F89030FDF7E0F80546226892
:1040A800126812F0080F10D123681B6813F0040F70
:1040B80028D12023C4F88830C4F88C300020E0666A
:1040C800206784F8840003B030BD6FF07E4300930E
:1040D800034600224FF400112046FFF782FF002814
:1040E800E2D0226852E8003F23F0800342E8003122
:1040F8000029F6D12023C4F88830002384F88430BE
:104108000320E0E76FF07E4300932B4600224FF434
:1041180080012046FFF765FF0028CAD0226852E8D0
:10412800003F23F4907342E800310029F6D1226859
:1041380002F1080353E8003F23F00103083242E884
:1041480000310029F3D12023C4F88C30002384F8EF
:1041580084300320B7E778B310B50446D0F8883028
:104168000BB32423C4F888302268136823F00103B2
:104178001360A36AE3B92046FFF7D4FB012811D0E6
:104188002268536823F4904353602268936823F0AD
:104198002A0393602268136843F0010313602046E2
:1041A800FFF774FF10BD80F88430FCF77FFFD8E775
:1041B8002046FFF7B1FEDEE701207047436E2BB9BA
:1041C8000123A0F86A30A0F86830704730B403685B
:1041D8009A68C2F342629968490F094D6B5C1B01EA
:1041E800084C615C93FBF1F3A0F86A30AB5C1B01EF
:1041F800A25C93FBF2F3A0F8683030BC704700BFB4
:10420800F8440008F044000890F88430012B18D0D6
:10421800012380F884302423C0F8883003681A68A2
:10422800196821F00101196022F000520023436649
:1042380001680A602022C0F8882080F88430184677
:1042480070470220704738B590F88430012B1DD094
:104258000446012380F884302423C0F8883003689A
:104268001D681A6822F001021A600268936823F038
:10427800604319439160FFF7A1FF23681D60202365
:10428800C4F88830002084F8840038BD0220FCE798
:1042980038B590F88430012B1DD00446012380F8EE
:1042A80084302423C0F8883003681D681A6822F017
:1042B80001021A600268936823F0606319439160F1
:1042C800FFF77CFF23681D602023C4F88830002096
:1042D80084F8840038BD0220FCE7000070B50D4E5C
:1042E8000D4D761BB61006D0002455F8043B01345A
:1042F8009847A642F9D1094E094D761B00F0D4F82B
:10430800B61006D0002455F8043B01349847A6425D
:10431800F9D170BD0C4500080C450008144500088B
:104328000C450008830730B548D0541E002A3FD0FA
:10433800CAB2034601E0013C3AD303F8012B9D07BA
:10434800F9D1032C2DD9CDB245EA05250F2C45EA24
:10435800054536D9A4F1100222F00F0C03F1200E06
:10436800E6444FEA121C03F1100242E9045542E9FF
:10437800025510327245F8D10CF1010214F00C0FFD
:1043880003EB021204F00F0C13D0ACF1040323F07A
:1043980003030433134442F8045B9342FBD10CF04B
:1043A80003042CB1CAB21C4403F8012B9C42FBD174
:1043B80030BD64461346002CF4D1F9E70346144691
:1043C800BFE71A46A446E0E7024B13B1024800F0E3
:1043D80005B8704700000000F143000800230146BB
:1043E8001A46184600F01AB838B5084B084D5B1B3A
:1043F8009C1007D0043B1D44013C55F804399847EC
:10440800002CF9D1BDE8384000F054B81845000830
:1044180014450008704700BF704700BF2DE9F047FA
:10442800DFF87CA00646DAF8000098460F46914669
:10443800FFF7F0FF1B4B1B68D3F8484124B36568AE
:104448001F2D26DC5EB96B1C0235DAF800006360AC
:1044580044F82570FFF7E0FF0020BDE8F08704EB83
:1044680085010123C1F88890D4F88821AB401A430C
:10447800022EC4F88821C1F80881E4D1D4F88C212F
:104488001343C4F88C31DEE703F5A674C3F848413A
:10449800D5E7DAF80000FFF7BFFF4FF0FF30DCE7A1
:1044A8003804002400450008F8B500BFF8BC08BC73
:1044B8009E467047F8B500BFF8BC08BC9E467047DA
:1044C80000000000010203040102030406070809B2
:1044D800010002000400060008000A000C00100099
:1044E80020004000800000010804020408010101C6
:0C44F80001010103070100001000002476
:0845040000C3FF7F010000006D
:08450C00D1430008BD020008C4
:044514009902000800
:104518000090D0030090D0030100000010000000BC
:1045280000000000FC02002464030024CC030024E3
:104538000000000000000000000000000000000073
:104548000000000000000000000000000000000063
:104558000000000000000000000000000000000053
:104568000000000000000000000000000000000043
:104578000000000000000000000000000000000033
:104588000000000000000000000000000000000023
:104598000000000000000000000000000000000013
:1045A8000000000000000000000000000000000003
:1045B80000000000000000000000000000000000F3
:1045C80000000000000000000100000000000000E2
:1045D8000E33CDAB34126DE6ECDE05000B000000A7
:1045E80000000000000000000000000000000000C3
:1045F80000000000000000000000000000000000B3
:1046080000000000000000000000000000000000A2
:104618000000000000000000000000000000000092
:0C49480000000000000000001406002425
:040000050800114D91
:00000001FF
